:020000040000fa
:080000000002040000000000f2
:020000040000fa
:10040000cf3821000e7f21000e018800000000007f
:100410000c000700c0c020000100200011000700f0
:10042000000020000000e000020032000000020096
:10043000000000006a190200000000000040da001d
:100440000000fe004440a900c00420000000e000bd
:100450000300320000002000a00188004440a800f2
:100460000000060091018800800078000000eb0089
:1004700015003700e280400032a0b4009101ba00bc
:10048000e280400032a0b4009102ba00e280400055
:1004900032a0b4000002eb00472bde00f507b200eb
:1004a000602ce10004003a000059eb008301e900f0
:1004b000fdff3e00040037006128e100010032002a
:1004c0000082eb00040007001101ba000200e00006
:1004d000e8ff3a00000006003159ba008301e90044
:1004e0000c0032002159ba008301e90008003200f3
:1004f0000400e00003003a00e280400032a0b400b3
:10050000f5ff370011d9ba008301e900faff3a007c
:100510008100e800e180400032a0b4000000060045
:100520000a00fa0080017800e20f500028003e0027
:10053000509c8000e10f5000080032008023200012
:100540000000e000050032000423200025232000e5
:100550004623200080017800040037000422200098
:1005600025222000462220008322200014409000f3
:100570000004e000040035008009eb001440900006
:100580000074a00010429800154090000028a300bd
:1005900003003a00154090000024a000904298000b
:1005a0008001eb0007003700154090000008a30011
:1005b000fdff320063c078000000fb00000b7800f4
:1005c0008301e800828f5100f7ff3a0008003700ee
:1005d00030002000b0bf9f00c3bf9f00d1bf9f006d
:1005e000e2bf9f006a80570000c0da006fb9970031
:1005f000020078000080fa0000000600881f7800e2
:10060000000478005001be004000be00040040001d
:10061000858048000601490087814900009cbe0092
:100620000294be000400e1000588e1000690e100ac
:100630000798e10002003100680044001008e8005b
:100640004f04780000000600f4874700889fbe0032
:100650008a9fbe008c9fbe008e1f78000205be00e0
:100660000004be00d4b79f00e5b79f00f6b79f0017
:1006700087bf9f000000eb00c0b79f00b0b79f008e
:10068000a0b79f0090b79f0080b79f000d04200087
:10069000bfb097004fb09700000140000000e0009d
:1006a0000f003d004f08de0000007100c0b79f0042
:1006b0009e00070001003d0012002000a10007007d
:1006c00001003d0012002000a6000700b100070055
:1006d000b60007000f004000c8ff070022003700e7
:1006e0004f08de0000067100ccb79f008f000700a6
:1006f00001003d00120020009200070001003d00b3
:100700001200200097000700a20007000fb2970018
:100710009fb297002fb39700bfb39700a9000700bf
:100720000000520081805a0002015b0083815b005f
:1007300080b79f0091b79f00a2b79f00b3b79f00fb
:100740000007eb009f0007000020e10001a8e10086
:1007500002b0e10003b8e100010031001e002000fa
:100760000e005600c0b79f004fb297000400e00093
:100770000700350010002000010020006011b800c3
:1007800008047000898470000a0571008b8571006f
:100790008d06e900beff3a000400e00003003d00c2
:1007a000820007000f00400094ff07004fa8970049
:1007b0000000e00004003a000fb497009fb49700d7
:1007c0002fb59700bfb59700940007004f0778003a
:1007d0004f06be004f05be004f04be004f01b100e2
:1007e00000000600881f780018002000881f78008d
:1007f00095ff07008f87e9004f047800000006008e
:10080000801feb0090ff07008f87e90000000600c3
:10081000889fbe008a9fbe008c1f78006e00070074
:1008200007003d0073000700e00f5b00e08f5b00f6
:1008300007003d00320007000006eb00040037000f
:100840003400070002003d002a0007001c002000c1
:1008500072000700e3ff07000203be000002be00b3
:100860000c00e00001003200220007000400be007e
:100870000601be004f0678004f05be004f04be00c3
:1008800000000600889fbe008a9fbe008c1f780073
:100890005100070005003d0056000700e00f5b0017
:1008a000e08f5b0006003d000400370019000700e0
:1008b00003003d006000b8006011b80010000700a0
:1008c00056000700ceff07000203be000002be0074
:1008d0000c00e00001003200060007000400be002a
:1008e0000601be004f0678004f05be004f04be0053
:1008f000000006006000b8006011b800000037007a
:10090000040250008582580006035900878359006d
:10091000000006000006eb00e00f5200e08f5a00d6
:10092000e00f5b00e08f5b000000060001804000ec
:1009300090b79f000001eb008fb097000100e0002e
:10094000000006000200700090b79f000180400088
:1009500080b79f000001eb00ffa897000100e000b6
:10096000000006000200700080b79f000180400078
:100970006faa9700cf20de0001007000f0af9f004b
:1009800004024200250007004f18de00000272003a
:1009900000000600e4af9f000804440089844c0076
:1009a0000a054d008b854d00000006003fb2970000
:1009b000cfb297005fb39700efb3970000fe2f0010
:1009c000000006003fb09700cfb097005fb19700de
:1009d000efb19700000006000205be000004be0053
:1009e000e00f5000e08f5800e00f5900e08f5900f1
:1009f000000006006000b8006011b8000804500054
:100a0000898458000a0559008b8559001c00200074
:100a1000e00f5200e08f5a00000006000800be0000
:100a20000a01be00000006000c00fa00889fbe000c
:100a300000047800cfb09700f0ff2700d0bf9f00e0
:100a40008004eb0099bf9f0088bf9f00a8bf9f0054
:100a5000200c2000b0bf9f007881570070805700a5
:100a6000080007000fb89700094878000fb89700f2
:100a700008045000080078004f04be000080fa000f
:100a800000000600fe874700889fbe008a9fbe00c8
:100a90008c9fbe008e1f7800f0b79f000107780082
:100aa00082bf9f000000eb00a0b79f009f023700ad
:100ab0008006eb0050c2b30080cf50000900320026
:100ac0000100fb00ffb09700a3020700e10f400008
:100ad00096023200afb097008100e800a1b79f00f6
:100ae000920237009e407800d0c2b30080cf500001
:100af0000c00320007003c006d40500080cf5000d9
:100b00000a0032006b40400080cf50000e003a00d7
:100b10000800370000c3b30080cf50000a003a003d
:100b2000060037000d30a000050037000d00a000c2
:100b3000030037000d10a000010037000d20a000b9
:100b40000e07e800e7ff37000d18a3000100320090
:100b50000d00a1000d38a300010032000d20a100fe
:100b60000100fb0002fd2f0002004000e90f5000d1
:100b70000e003e000002eb00c4b79f008201780027
:100b8000cfb297006a28b9001e01fb0000014100a6
:100b900003014100c2b79f005e00fb00030040005c
:100ba000e90f50000b003e00f5ff37000006eb0098
:100bb000ccb79f00a0c2b30080cf500005003a0020
:100bc0000fb89700c000780080bf9f00c1b79f009a
:100bd0000e07e8000001eb00b2b79f00e0c2b300cf
:100be0009e4f100018003a000de0a0008e00e800b3
:100bf00064405000914f100002003200010778005d
:100c00000c0037000fba9700c402780084bf9f0021
:100c1000b5b79f000e87e8000b0037003fb697007e
:100c20006a60b9000000410003004000b0b79f00b7
:100c30000e07e8001e01fb0003fd2f00030041002a
:100c4000e90f5000f5ff3600be407800e1d79f0065
:100c5000c0c6b30080cf5000220032000f003c001d
:100c60006940500080cf50007700320004003c0003
:100c70000104e000310232006b4050000f003700e9
:100c800040c6b30080cf5000930032006540400062
:100c900080cf50008b003a008f00370030c7b30080
:100ca00080cf50001a00320007003c006440500022
:100cb00080cf5000110032000040e80080cf50008b
:100cc00080003a000f00370050c7b30080cf5000bb
:100cd000800032006340400080cf500079003a002d
:100ce00009003700000028000d48a30001003a0069
:100cf0000001200080867600d3ff37000d60a00041
:100d0000750037000d50a0000d70a0007200370074
:100d10008fb897004100780081bf9f0000047800e1
:100d20000000e00001003a00483321008004eb009d
:100d3000010037008104e800890078000880440041
:100d40001004e000fbff3a003fb197000200e00012
:100d500003003200890f5100010031008204780045
:100d60000002eb00e4af9f00cfb29700898f5200e2
:100d70000200360009805200e0af9f004368de00a9
:100d8000e10660001b003a000d06780009003700fc
:100d9000ffb0970000022000ef010700e10f4000c4
:100da000030032002fb097000000e800a0b79f00ba
:100db0000c06e800efa89700810f5600f4ff3a00f8
:100dc0000081eb00e2af9f000a0037008800780046
:100dd0003100fb0001047800ffb09700de0107003e
:100de000e10f4000030032002fb297000402e80038
:100df000a4b79f000900e90080047800e10f4000db
:100e0000f2ff3a000006eb000d00e0000a003a0095
:100e1000c6013700ffb0970000022000ce01070096
:100e2000e10f400003003200afb297008502e800f6
:100e3000a5b79f000c06e8006fa89700800f56002a
:100e4000f4ff3a00b90137008fb8970041007800ed
:100e500081bf9f00cf80de00010178008201780011
:100e60000205be000004be000203be000002be0078
:100e70004822de00482edd0004027600e4d79f0001
:100e80000d48a3000a0032000404e000080032000c
:100e9000e14f42000600320071fd2f000f8040003c
:100ea000044878001840980029002000020037000c
:100eb000f0d79f001900200072fd2f000f044100a1
:100ec000a1ff370064fd2f000f044200190020002d
:100ed0009dff37000d0cb3000d007800000cb20030
:100ee00028003a000d00e00005003d008fba970091
:100ef0004505be004504be0085bf9f0014003700b5
:100f00000d48a3000b0032000fbe97004c00be003e
:100f10008cbf9f004f89de00cf91de000002be0033
:100f200002037800820378000605be000404be00b8
:100f3000070037008fb897004100780081bf9f00fd
:100f400000047800cfc4de00090578008a05780027
:100f5000e00f5400e08f5c00e00f5d00e08f5d006b
:100f60001f003d003d00b3006000b8006011b800f4
:100f700008045000898458000a0559008b855900df
:100f8000170037000d00e00005003d000fb9970085
:100f90004205be004204be0082bf9f001000370021
:100fa0000d48a300070032000fba97004400be00ae
:100fb00084bf9f006011b8000205be000004be009f
:100fc000070037008fba97004500780085bf9f0063
:100fd00000047800090020000a0020000b00200017
:100fe0003fb697000c00e00007003a00e00f540005
:100ff000e08f5c00e00f5d00e08f5d0002003a00d2
:1010000010002000b0b79f008d007800010cb200e6
:10101000e1b79f0000042000808f500030003200b4
:1010200003003c000100e0000800320040003700ef
:10103000000820006fb19700800f510014003200ab
:10104000000c2000800f510039003a0014c0b3009a
:10105000452921000b0037000400fb004300dd00a0
:10106000050040005001be004000be000040e1000d
:1010700001c8e10002d0e10003d8e1002b003900f3
:101080000442e800f44f5200f3ff3a002700370013
:1010900000012000010020006011b80014c0b3005e
:1010a0000040e10001c8e10002d0e10003d8e10006
:1010b0001e003900450020000000d0008180d200d1
:1010c0000281d2008381d2008502e900faff3a0052
:1010d0000442e800f04f5200f1ff3a0013003700dd
:1010e00080002000010020006011b80014c0b3008f
:1010f0000040e10001c8e10002d0e10003d8e100b6
:101100000a0039003c0020000000d0008180d2009d
:101110000281d2008381d2000c06e900faff3a0076
:101120000442e800f54f5200f1ff3a00e4d79f0077
:10113000efd097000100fb003fb19700820f5000f5
:1011400002003d00e2d79f00040037003fb2970045
:10115000800f520001003d00b0b79f00cfb2970052
:101160000500e000040032006380660002003200e7
:101170008502e900c5b79f000de8a3000b0032000f
:101180004fb697003fb09700800f560003003c0019
:101190008000eb00c1b79f00040037004fb19700fb
:1011a0003fb2970004015100c2b79f00efd29700f1
:1011b0000500fb000006eb00dcaf9f00cfb09700fe
:1011c000808f50000200340000805000d0af9f009c
:1011d0000d28a30037003200e18066000d18a3003f
:1011e0000c003200d00220000100e00001003a00b3
:1011f0000080e900ffb09700d7000700e10f400032
:101200000e0032002fb197000201e800a2b79f0044
:101210000a0037000100e00008003200ffb097002c
:1012200000022000cc000700e10f40000300320064
:101230002fb297000402e800a4b79f00dfaa97002e
:101240000500e0000f0032000006eb00ffb0970041
:1012500000032000c0000700e10f4000030032003f
:101260002fb097000000e800a0b79f000c06e80030
:10127000dfa89700810f5600f4ff3a000001eb0051
:10128000d2af9f003fb29700c320dd00c0282100ed
:101290008080400091b79f004220dd006400500034
:1012a00080b79f006320b900f0af9f006306500035
:1012b00084003700dfaa97000500e000110032002b
:1012c000688066000f003a0000067800ffb09700c3
:1012d00000022000a0000700e10f400003003200e0
:1012e0002fb097000000e800a0b79f000c06e800b0
:1012f000dfa89700810f5600f4ff3a000001eb00d1
:10130000d2af9f00e18066000d18a3000c003200f0
:10131000d00220000100e00001003a000080e90056
:10132000ffb097008c000700e10f4000d5ff3200ae
:101330002fb297000402e800a4b79f00d1ff370046
:101340000100e000cfff3200ffb097000002200054
:1013500081000700e10f4000caff3200afb29700e2
:101360008502e800a5b79f00c6ff370000042000f3
:10137000efb09700808f50003100320003003c0036
:101380000100e000080032003e00370000082000a5
:101390006fb19700800f510011003200000c200047
:1013a000800f510037003a001fb097003002be0096
:1013b0002003be000800be000a01be0009fd0700b0
:1013c000a4002000050020006033b8000cfd0700d9
:1013d00004c3b30004424000e4d79f002900370053
:1013e000b5332100d5b79f000d58a30002003a0085
:1013f000c0342100d0b79f00140020000500200059
:101400006033b8008fb097008100e9000500330019
:101410000402d0008582d2000683d2008783d200e6
:10142000f9ff37000800be000a01be00edfc07000e
:101430006f0060005fb197006240780010003700d5
:1014400014002000050020006033b8000c00780074
:101450000000e900050033000402d0008582d200bc
:101460000683d2008783d200f9ff37000800be0050
:101470000a01be00dbfc0700674060000043b000cb
:10148000e0d79f00efd097000100fb00ffb097006e
:1014900031000700e10f4000030032002fb1970038
:1014a0000201e800a2b79f001fb297006802520035
:1014b00094b79f008fb29700e482520085b79f00d7
:1014c00063065600d0ff2f003fb197000090b9008f
:1014d0007faa97000000420063005000800f560072
:1014e000a2ff3a000d38a30010003200dfaa9700d7
:1014f0000500e0000d0034000006eb00ffb097008f
:101500000002200014000700e10f40000300320039
:101510002fb097000000e800a0b79f000c06e8007d
:10152000dfa89700810f5600f4ff3a00be40780014
:10153000e1d79f000104e0005dfd3a002fb0970065
:101540004f0778004f06be004f05be004f04be0097
:10155000ef01b10000000600889fbe000001780086
:1015600001047800b10090000118a3003d00320092
:101570000198a30003003a00180090000000e0006a
:1015800038003a000190a0003104980082047800ed
:10159000f90fb200180090000000e00002003a00cd
:1015a00028009000000c7800ea8f540006003a00f2
:1015b000380090000078a30003003a00880078000b
:1015c000d0002000e4ff0700980090005800900031
:1015d000808f50000b0032000100e80010049800da
:1015e0001800780009587800000c780011c0b3008a
:1015f0008038210001487800ea8f5400060032004c
:1016000019003700880078000940780019000700a9
:101610008004780014003700380090000088a30090
:101620001100320018019000a800900048009000be
:10163000bbfb070098009000810f500004003200af
:10164000380090000003b300300498008084eb0061
:101650000000eb001004980028009000000c7800b7
:10166000010037008084eb00090078004f04be00c1
:10167000000006000200fa00889fbe00a0ff9f0045
:1016800001047800b1009000810478000904b200e0
:10169000020032000000fb00360037000118a300f2
:1016a00005003a000103b3003104980019049800c2
:1016b0000080eb002f003700580090000000e00091
:1016c00006003a004800900012002000e680570013
:1016d00093fb0700190498002400370028009000ad
:1016e0000000e00008003a00403821002004980083
:1016f000000c78002000200050049800100498008e
:101700000130a0003104980018019000a80090005a
:101710004800900082fb070028009000000c780031
:101720000080eb001004980018007800aff89700d4
:1017300001587800000c78002ff89700ea4f50000d
:101740000a003a00380090000088a3000700320029
:1017500018019000a80090004800900070fb07005e
:1017600019049800a8009000010c7800aff89700c9
:101770000100fb004f04be000080fa0000000600dc
:020000040000fa
:0457f8009f290000e5
:020000040000fa
:0457fc007f3f0000eb
:020000040000fa
:10000800942300009423000094230000942300000c
:1000180094230000942300009423000094230000fc
:10002800f4210000942300009423000072210000b2
:1000380094230000942300009423000094230000dc
:100048009423000094230000942300002021000042
:10005800342100004c220000942300009423000067
:1000680094230000942300009423000094230000ac
:10007800162200009423000094230000942300001b
:10008800942300009423000094230000942300008c
:1000980094230000942300003c2100006a21000002
:1000a800942300009423000094230000942300006c
:1000b800942300009423000094230000942300005c
:1000c800942300009423000094230000942300004c
:1000d800942300009423000094230000942300003c
:1000e800942300009423000094230000942300002c
:1000f800942300009423000094230000942300001c
:10010800942300009423000094230000942300000b
:1001180094230000942300009423000094230000fb
:1001280094230000942300009423000094230000eb
:1001380094230000942300009423000094230000db
:1001480094230000942300009423000094230000cb
:1001580094230000942300009423000094230000bb
:1001680094230000942300009423000094230000ab
:10017800942300009423000094230000942300009b
:10018800942300009423000094230000942300008b
:10019800942300009423000094230000942300007b
:1001a800942300009423000094230000942300006b
:1001b800942300009423000094230000942300005b
:1001c800942300009423000094230000942300004b
:1001d800942300009423000094230000942300003b
:1001e800942300009423000094230000942300002b
:0801f800942300009423000091
:020000040000fa
:10020800942300009423000094230000942300000a
:1002180094230000942300009423000094230000fa
:10022800f4210000942300009423000072210000b0
:1002380094230000942300009423000094230000da
:100248009423000094230000942300002021000040
:10025800342100004c220000942300009423000065
:1002680094230000942300009423000094230000aa
:100278001622000094230000942300009423000019
:10028800942300009423000094230000942300008a
:1002980094230000942300003c2100006a21000000
:1002a800942300009423000094230000942300006a
:1002b800942300009423000094230000942300005a
:1002c800942300009423000094230000942300004a
:1002d800942300009423000094230000942300003a
:1002e800942300009423000094230000942300002a
:1002f800942300009423000094230000942300001a
:100308009423000094230000942300009423000009
:1003180094230000942300009423000094230000f9
:1003280094230000942300009423000094230000e9
:1003380094230000942300009423000094230000d9
:1003480094230000942300009423000094230000c9
:1003580094230000942300009423000094230000b9
:1003680094230000942300009423000094230000a9
:100378009423000094230000942300009423000099
:100388009423000094230000942300009423000089
:100398009423000094230000942300009423000079
:1003a8009423000094230000942300009423000069
:1003b8009423000094230000942300009423000059
:1003c8009423000094230000942300009423000049
:1003d8009423000094230000942300009423000039
:1003e8009423000094230000942300009423000029
:0803f80094230000942300008f
:020000040000fa
:1017800054650000737400002064000065200000b0
:1017900053740000726900006e6700002e2e000076
:1017a0002e0000000000000000000000000000000b
:1017b0000000000000000000000000000000000029
:1017c0000000000000000000000000000000000019
:1017d0000000000000000000000000000000000009
:1017e00000000000000000000000000000000000f9
:1017f00000000000000000000000000000000000e9
:1018000041440000433a000020250000690d00001b
:081810000000000001000000cf
:020000040000fa
:10181800621200001a000000020000000000000030
:1018280000000000000000000000000000000000b0
:101838000000000000000000000000003000000070
:101848007c12000018000000020000000000f300f5
:10185800f3f3f300f2523200200000000000000011
:101868000000000000000000007e0000e2110000ff
:1018780080000000000000000008000000040000d4
:1018880002000000000000000000000030084800ce
:10189800c098100000c0200020e040000000c000f8
:1018a8000040a000a0e0000000e0200020f8200098
:1018b8002000000000f8000000000000f800000010
:1018c80030484800c88810000000000000000000f0
:1018d80000000000ff0000000000f0009090900061
:1018e8007020000080404000c0004000f0404000f0
:1018f800f0400000804000008000c0004040000030
:10190800d00000008000400080004000400000003f
:1019180000000000000000000000000000000000bf
:10192800000000000040a00040804000200080002f
:101938008080800080828200808480008483800090
:10194800878080008780800080878000838484006f
:1019580087848000878000008384800080808000e6
:101968008182840084848100808082008484840051
:101978008483800080808000808080008080ff00d9
:1019880000000000000f080008000d000700060016
:1019980009090e0008000f0008000f0008000700e2
:1019a80001010100000f000000000f000000070007
:1019b800010101000008080000000000000000000c
:1019c8000000000000000000000000000000080007
:1019d80004020100040a04000000000000141000c2
:1019e800140000000040400000000000043810000f
:1019f800141808000454200008145400203810005b
:101a080010580000000000000044440000000000de
:101a1800ff000000000000000000000000000000bf
:101a280000000000000000000000000000000000ae
:101a3800000000000000000000000000000000009e
:101a4800000000000000000000000000000000008e
:101a5800000000000000000000000000000000007e
:101a6800000000000000000000000000000000006e
:101a7800000000000000000000000000000000005e
:101a8800000000000002820072425200820202003e
:101a98000202020002021200e242520062224200e6
:101aa8005282220002528200e25242006202a200e6
:101ab80052320200121202000202ff00000000006f
:101ac800000000000000000000000000000000000e
:101ad80000000000000000000000000000000000fe
:101ae80000000000000000000000000000000000ee
:101af80000000000000000000000000000000000de
:101b080000000000000000000000000000000000cd
:101b180000000000000000000000000000000000bd
:101b280000000000000000000000000000000000ad
:101b38000809c8002848090008080800090808001a
:101b4800084888000949880088084900088848002a
:101b5800490888000808890008492900c908490077
:101b68004908080008ff000000000000000000000d
:101b7800000000000000000000000000000000005d
:101b8800000000000000000000000000000000004d
:101b9800000000000000000000000000000000003d
:101ba800000000000000000000000000000000002d
:101bb800000000000000000000000000000000001d
:101bc800000000000000000000000000000000000d
:101bd8000000000000000000000020002621210075
:101be8002126200023212400202020002023250056
:101bf8002521200021252200202125002223210043
:101c0800212500002529260020242400202020004a
:101c18003f0000000000000000000000000000007d
:101c280000000000000000000000000000000000ac
:101c3800000000000000000000000000000000009c
:101c4800000000000000000000000000000000008c
:101c5800000000000000000000000000000000007c
:101c6800000000000000000000000000000000006c
:101c7800000000000000000000000000000000005c
:101c8800000000000000f8004848c80008100000e4
:101c9800c0a8a400a4c00000c0a0a00020408000ec
:101ca800e0808000c0000000e0202000e08000000c
:101cb800c0608000e0808000c000e000202020009c
:101cc800004040000000000000000000000000008c
:101cd80000000000000000000000000000000000fc
:101ce80000000000000000000000000000000000ec
:101cf80000000000000000000000000000000000dc
:101d080000000000000000000000000000000000cb
:101d180000000000000000000000000000000000bb
:101d280000000000000000000000000000000000ab
:101d3800000700000000010006000300060404007c
:101d4800000002000404050003010200040402006c
:101d58000000070000000000030603000001020065
:101d68000004020000070000000000000404000056
:101d7800000000000000000000000000000000005b
:101d8800000000000000000000000000000000004b
:101d9800000000000000000000000000000000003b
:101da800000000000000000000000000000000002b
:101db800000000000000000000000000000000001b
:101dc800000000000000000000000000000000000b
:101dd800000000000000000000000000000c0000ef
:101de80000040000020000000000000000000000e5
:101df80030084800c098100000c0200020e04000d3
:101e08000000c0000040a000a0e0000000e02000aa
:101e180020f820002000000000f80000000000006a
:101e2800f800000030484800c88810000000000092
:101e38000000000000000000ff0000000000f000ab
:101e4800909090007020000080404000c00040004a
:101e5800f0404000f0400000804000008000c000da
:101e680040400000d000000080004000800040009a
:101e7800400000000000000000000000000000001a
:101e880000000000000000000040a000408040006a
:101e98002000800080808000808282008084800012
:101ea800848380008780800087808000808780000e
:101eb8008384840087848000878000008384800076
:101ec80080808000818284008484810080808200f8
:101ed80084848400848380008080800080808000e7
:101ee8008080ff0000000000000f080008000d00bf
:101ef8000700060009090e0008000f0008000f007f
:101f08000800070001010100000f000000000f0099
:101f1800000007000101010000080800000000009f
:101f280000000000000000000000000000000000a9
:101f38000000080004020100040a04000000000078
:101f48000010100010000000000000000000000059
:101f580004381000141808000000200008000000d1
:101f68002038100010580000000000000044440011
:101f780000000000ff00000000000000000000005a
:101f88000000000000000000000000000000000049
:101f98000000000000000000000000000000000039
:101fa8000000000000000000000000000000000029
:101fb8000000000000000000000000000000000019
:101fc8000000000000000000000000000000000009
:101fd80000000000000000000000000000000000f9
:101fe8000000000000000000000000000000f000f9
:101ff800080870002a2a300010a808004870a800b5
:10200800a8300000f808080070c0380070aaaa00bc
:10201800b000000000000000000000000000ff0009
:1020280000000000000000000000000000000000a8
:102038000000000000000000000000000000000098
:102048000000000000000000000000000000000088
:102058000000000000000000000000000000000078
:102068000000000000000000000000000000000068
:102078000000000000000000000000000000000058
:102088000000000000000000000000000000000048
:102098000000040004040400040404000404040010
:1020a80004040400040404000404040004040400f8
:1020b80004040400040404000404040004040400e8
:1020c80004040400040404000407000000000000e5
:1020d80000000000000000000000000000000000f8
:1020e80000000000000000000000000000000000e8
:1020f80000000000000000000000000000000000d8
:1021080000000000000000000000000000000000c7
:1021180000000000000000000000000000000000b7
:1021280000000000000000000000000000000000a7
:102138000000000000000000000000000000000097
:102148000000000000000000000000000000000087
:102158000000000000000000000000000000000077
:102168000000000000000000000000000000000067
:1021780000000000c0404000404040004040400097
:102188004040400040404000404040004040400047
:102198004040400040404000404040004040400037
:1021a8004040400040404000404040004040400027
:1021b80040404000c0000000000000000000000097
:1021c8000000000000000000000000000000000007
:1021d80000000000000000000000000000000000f7
:1021e80000000000000000000000000000000000e7
:1021f80000000000000000000000000000000000d7
:1022080000000000000000000000000000000000c6
:102218000000000000000000000000000000ff00b7
:1022280000ffff00ff7f3f00436303002fffff0015
:102238000fefcf00cf1fff000fcfcf00cf0fff0052
:102248000fffff000ffffb00031f1f00afafaf0022
:102258009fff0f00cfcfff00ffffff00ff00ff0031
:102268000000000000000000000000000000000066
:102278000000000000000000000000000000000056
:102288000000000000000000000000000000000046
:102298000000000000000000000000000000000036
:1022a8000000000000000000000000000000000026
:1022b8000000000000000000000000000000000016
:1022c8000000000000000000007f40005f5f5f002a
:1022d8005c5c5f005f5f5e005c5f5c005f5f5f008f
:1022e8005c5f5c005f5f5f005c5f5e005c5c5e0083
:1022f8005f5f5c005e5e5d005d5d5e005f5c5f0071
:102308005f5f5f005f5f5f00407f000000000000cc
:1023180000000000000000000000000000000000b5
:1023280000000000000000000000000000000000a5
:102338000000000000000000000000000000000095
:1023480000100000e2010000020000000000000090
:1023580000000000005f0000000007000007000008
:10236800147f14007f1424002a7f2a0012231300ec
:102378000864620036495500225000000503000039
:1023880000001c0022410000004122001c0008003f
:102398002a1c2a00080808003e08080000503000df
:1023a800000008000808080008003000300000009d
:1023b8002010080004023e00514945003e0042003a
:1023c8007f400000426151004946210041454b00d1
:1023d80031181400127f10002745450045393c008c
:1023e8004a4949003001710009050300364949008e
:1023f80049360600494929001e003600360000000b
:102408000056360000000000081422004114140091
:10241800141414004122140008000200015109009c
:102428000632490079413e007e111100117e7f007d
:1024380049494900363e4100414122007f4141005f
:10244800221c7f0049494900417f09000901010018
:102458003e41410051327f00080808007f004100da
:102468007f410000204041003f017f000814220006
:10247800417f4000404040007f020400027f7f000f
:10248800040810007f3e410041413e007f090900d9
:1024980009063e00415121005e7f090019294600c6
:1024a8004649490049310100017f0100013f4000d0
:1024b80040403f001f204000201f7f0020182000c0
:1024c8007f631400081463000304780004036100a8
:1024d80051494500430000007f41410002040800c3
:1024e80010204100417f00000004020001020400a6
:1024f8004040400040400000010204000020540019
:10250800545478007f484400443838004444440018
:102518002038440044487f003854540054180800b8
:102528007e0901000208140054543c007f0804008e
:1025380004780000447d400000204000443d000035
:10254800007f100028440000417f4000007c040008
:10255800180478007c0804000478380044444400d7
:10256800387c14001414080008141400187c7c002b
:10257800080404000848540054542000043f440050
:1025880040203c00404020007c1c200040201c00d3
:102598003c403000403c440028102800440c5000c7
:1025a80050503c00446454004c440000083641003c
:1025b800000000007f00000000413600080008000d
:1025c800082a1c0008081c002a080800000000004f
:1025d80094120000a00000000200000001000000aa
:1025e8000000000000000a000000000000000000d9
:1025f800006400000000000000000000e803000084
:10260800000000000000100027000000000000008b
:1026180000a08600010000000000000040420f00fa
:1026280000000000000080009698000000000000f4
:102638000000e100f50500000000000000ca9a0053
:102648003b00000000000000e40b54000200000002
:102658000000e80076481700000000000010a50000
:10266800d4e8000000000000a0724e001809000025
:10267800000040007a10f3005a0000000080c600f5
:10268800a47e8d000300000000c16f00f2862300c5
:10269800000000008a5d78004563010000006400c6
:1026a800a7b3b600e00d000000e889000423c700c6
:1026b8008a000000341300002a0000000200000015
:1026c800286e75006c6c29000030310032333400fc
:1026d800353637003839410042434400454600004a
:1026e8003031320033343500363738003961620012
:1026f80063646500660000005e13000026000000a9
:102708000200000060138600130000008613090011
:10271800000000000200840013000000841306007b
:102728000201000000000000000000000000060098
:1027380002020000000000008413000006000000f0
:10274800000000008a1300000200000002000000e0
:08275800010000000000000078
:020000040000fa
:102760000800fa00300798000e80e800630040007f
:10277000be0090001700070010c0b3007a070700e2
:102780000000eb00000f78000a003700ba040700d1
:102790000004e000fdff3a009e0078000e80e80093
:1027a00000804000104078000000fb00a01188006d
:1027b0001e0fe800200020009e0f1000f3ff3600df
:1027c0000040eb0068070700100020000080fa00be
:1027d000000006000600fa00100798002107980084
:1027e0000000eb00000f78000000eb00000f780005
:1027f000070037001e007800800078001e0090005f
:102800008080400070ceb300804878001e0fe80042
:102810001e00e000f7ff34001e0078008000780002
:102820001e009000808040002e0090001040780034
:10283000804878009e0078001e00900000804000d4
:102840008000e80070ceb300804878000080fa0075
:10285000000006000200fa00000f780010002000bf
:102860000080fa00000006000e00fa00889fbe00fb
:102870008a1f7800200798003107980042079800c7
:1028800053079800640798003e00900010007800fd
:102890000000e000660032006e009000100078003a
:1028a000e10f500019003a003e009000100078003f
:1028b000e10f5000150032003e009000100078003b
:1028c0000000e90005010700104798002e00900065
:1028d000904078001e40900000cf60001e409000a5
:1028e0009e4f100009003200ee0090000000eb0047
:1028f00080087800be0090000000eb00800878009f
:102900000000eb00a0938800630037003000200037
:10291000100798006e009000900078001e00900054
:10292000808f50000d0031006e0090001000780084
:10293000800078005e009000008140002e00900032
:10294000104078008000fb003e00900010007800ee
:102950000000e9000008dd00004978003e0090001a
:1029600010007800e10f50001d0032006e00900052
:1029700010007800800078005e0090000080400029
:102980008004e9006e00900010007800800078005c
:102990005e009000008040000000e90010407800d8
:1029a000004578002e009000104078008000fb0069
:1029b0003e00900010007800690010000088de00e2
:1029c000004478003e009000100078000000e9000c
:1029d0008a0007000040640000407500804c7800c9
:1029e0006e009000100078008000e8006e009000fb
:1029f000010878006e009000900078001e009000a2
:102a0000808f500022003600ce00900010c0b3002e
:102a100080487800ee0090000000eb00800878000d
:102a2000be0090000000eb0080087800180037001e
:102a30002e0090001c000700800078003e009000ef
:102a4000010878003e009000100078000000e000cf
:102a50000f0032002e009000104078008000fb0034
:102a60003e009000100078000000e9000008dd0042
:102a7000804078005e009000014878006e00900071
:102a8000100078008000e8006e00900001087800d7
:102a90000000eb00a09388004f0578004f04be00b3
:102aa0000080fa00000006000400fa00000f780021
:102ab0001e007800104078008000fb00700e20009f
:102ac00080806000700e2000808f500003003a006c
:102ad0001000200010079800450037001e00780005
:102ae000104078008000fb003007200080806000ec
:102af00030072000808f500003003a0020002000a3
:102b0000100798003a0037001e0078001040780047
:102b10008000fb0090032000808060009003200074
:102b2000808f500003003a0030002000100798000a
:102b30002f0037001e007800104078000000fb00d6
:102b40007c006000fc0f500003003a0040002000b1
:102b500010079800260037001e007800104078000b
:102b60000000fb006e006000ee0f500003003a0012
:102b700050002000100798001d0037001e0078004c
:102b8000104078000000fb0067006000e70f500075
:102b900003003a006000200010079800140037007e
:102ba0001e007800104078000000fb006300600009
:102bb000e30f500003003a00700020001007980057
:102bc0000b0037001e007800104078000000fb006a
:102bd000610060000004e00003003200800020007b
:102be00010079800020037000000eb001007980063
:102bf0001e0090000080fa00000006000600fa00a7
:102c0000000f78001e007800200798002e0090002a
:102c1000e40f5000200032002e009000e40f50001e
:102c20000a003e002e009000e20f50001400320017
:102c30002e009000e20f500014003e002e00900085
:102c4000e10f50000b0032001f0037002e009000f3
:102c5000e60f5000160032002e009000e60f5000e4
:102c6000100039002e009000e70f500013003200d2
:102c700015003700100020001007980014003700de
:102c8000300020001007980011003700700020006d
:102c9000100798000e003700f00020001007980081
:102ca0000b003700f00120001007980008003700e3
:102cb000f00320001007980005003700f0072000ff
:102cc00010079800020037000000eb001007980082
:102cd0001e0090000080fa00000006000600fa00c6
:102ce000000f78001e007800200798002e0090004a
:102cf000e40f5000200032002e009000e40f50003e
:102d00000a003e002e009000e20f50001400320036
:102d10002e009000e20f500014003e002e009000a4
:102d2000e10f50000b0032001f0037002e00900012
:102d3000e60f5000160032002e009000e60f500003
:102d4000100039002e009000e70f500013003200f1
:102d50001500370000f82f00100798001400370006
:102d600000fc2f00100798001100370000fe2f0014
:102d7000100798000e003700000720001007980089
:102d80000b00370080032000100798000800370070
:102d9000c0f92f001007980005003700e0fc2f0055
:102da00010079800020037000000eb0010079800a1
:102db0001e0090000080fa00000006000600fa00e5
:102dc00020479800314798004247980053479800a1
:102dd0000040eb00004f780011003700a0c0280031
:102de000104178003e4090009e4040002e409000f0
:102df00007040700a0c02800104178003e40900062
:102e00009e414000ae4090004e40900000c0400007
:102e10000040e90083407800fd0307001e4fe800f2
:102e20005e4090009e4f1000ecff39000040eb0028
:102e3000004f780011003700a0c028001041780032
:102e40002e4090001e404000be409000f00307005e
:102e5000a0c0280010417800be4090005e40900065
:102e600000c040000040e900804078002e40900003
:102e70001e404000e60307001e4fe8004e40900051
:102e80009e4f1000ecff39000080fa0000000600a1
:102e90000e00fa00204f9800314f9800424f9800e2
:102ea0004e4890000080fb00400798000000eb00b7
:102eb000300798004e4890000080fb000000400062
:102ec00061001000200798001000200010079800f3
:102ed0000000eb00000f780077003700a0c028004a
:102ee000104178003e009000804078003e489000fd
:102ef00000c04000804178004e0090008040780083
:102f00002e48900000c0400083407800c0030700b6
:102f1000a0c02800104178003e009000804078005a
:102f20003e48900000c0400080417800ae489000cc
:102f30004e00900000c0500083407800b4030700aa
:102f4000a0c0280010417800be4890003e009000cc
:102f500000c0500080417800ae4890004e009000c4
:102f600000c0500083407800a9030700a0c02800db
:102f700010417800be4890003e00900000c0500014
:102f8000804178004e009000804078002e489000ec
:102f900000c04000834078009d030700a0c02800c7
:102fa000104178004e009000804078003e4890002c
:102fb00000c04000804178003e00900080407800d2
:102fc0002e48900000c04000834078009003070026
:102fd000a0c02800104178004e009000804078008a
:102fe0003e48900000c0400080417800ae4890000c
:102ff0003e00900000c0500083407800840307002a
:10300000a0c0280010417800be4890004e009000fb
:1030100000c0500080417800ae4890003e00900013
:1030200000c050008340780079030700a0c028004a
:1030300010417800be4890004e00900000c0500043
:10304000804178003e009000804078002e4890003b
:1030500000c04000834078006d0307003e009000f0
:103060000000e800300798001e0090001e0f40008e
:103070001e0090000080e800100798001e007800f5
:1030800000004000800078002e009000008040008a
:103090000000e000080034004e0090000000e9004d
:1030a000400798002e0090001e0f40002e00900058
:1030b0000080e80020079800ce0090003e009000bd
:1030c000808f500085ff3d000080fa000000060060
:1030d0001c00fa00200f9800310f9800420f980052
:1030e000530f9800ce0890002e08900000805000ea
:1030f00050079800de0890003e08900000805000c5
:1031000040079800de0090005e00900000804000c4
:1031100030079800ce0090004e00900000804000e4
:10312000200798002e089000100f98003e0890008d
:10313000000f980010002000700798001000200079
:10314000600798005e0090000000e00008003d006d
:103150000080eb00700798005e0090000000ea001d
:10316000500798003e0090000000ea0030079800e9
:103170004e0090000000e00008003d000080eb00e1
:10318000600798004e0090000000ea004007980099
:103190002e0090000000ea0020079800a0c0280040
:1031a000104178003e089000804078002e08900082
:1031b000170307005e0090000000e00003003a00e3
:1031c0004e0090000000e00040003200ce00900071
:1031d0005e009000808f500021003c000000eb005a
:1031e000100798009e0890007e009000008040002c
:1031f000100f98009e0090002e009000008040006c
:10320000100798009e0090005e009000808f500094
:10321000080034008e0890006e009000008040008e
:10322000000f98009e0090003e009000008050002b
:1032300010079800a0c02800104178000e089000e8
:10324000804078001e089000f10207009e08900060
:103250004e089000808f5000e2ff3a001b003700bc
:103260000000eb00000f78008e0890006e009000c8
:1032700000804000000f98003e0090001e0f4000ac
:103280004e0090009e0f1000060034009e08900033
:103290007e00900000804000100f98002e009000eb
:1032a0001e0f1000a0c02800104178000e089000ea
:1032b000804078001e089000d50207008e0890001c
:1032c0005e089000808f5000e7ff3a000080fa000f
:1032d000000006004c00fa000000eb001007980008
:1032e0006400470001bc2800110009003158780033
:1032f0002001b100720040006011b8000288be00d9
:10330000640040006011b8000288be006400400004
:103310006011b8000288be00640040006011b8006f
:103320000288be00640040006011b8000288be0040
:10333000640040006011b8000288be0064004000d4
:103340006011b8000288be00640040006011b8003f
:103350000288be00640040006011b8000288be0010
:10336000640040006011b8000288be0064004000a4
:103370006011b8000288be00640040008000eb00cd
:103380000108780050c3b300004f78000040eb0004
:1033900070c798000000eb00402798000000eb0089
:1033a00050279800180007003400070010c0b30031
:1033b0006d04070022292100124178007dd2bf0050
:1033c0000080fb008000e800e02721000080400032
:1033d000904178007dd2bf008080fb00e027210073
:1033e0000080400010407800834078007b00070098
:1033f0007cf2b7007cd2bf00a1c0b300b8000700c8
:1034000000000000ebff37000000fa0031742000dc
:1034100091407800f0c8b30000c060000044a000f4
:1034200043e7b700317420009140780080cfb300ab
:1034300000c060000004a00043e7b7005174200002
:1034400091407800f0c8b30000c0600045e7b700c5
:10345000517420009140780080cfb30000c060001c
:1034600045e7b70042c7bf000042b2000004e000d9
:10347000fcff32000080fa00000006000000fa00a5
:103480001304070023040700c400070042010700db
:10349000520407006b0407008400a9008680a9007d
:1034a0009400a8009680a8009580a90097e0a90044
:1034b0009540a9008540a9009500a90094e0a900c5
:1034c00094c0a9009420a9009440a9009420a900c8
:1034d0009c20a9009c40a90099a0a9000080fa00a6
:1034e000000006000a00fa0070938000801f780038
:1034f00000c02800801f78000e0078004af5070001
:10350000e48757000e0078000c01070000712200cc
:10351000770407000080fa00000006001600fa0099
:103520000000eb00000f78000000eb00000f7800b7
:10353000060037009e0078000e80e8008080400082
:1035400010c6b300804878001e0fe80090002000ed
:103550009e0f1000f7ff36000000eb00000f780010
:10356000090037001e0078006a0140001e00780044
:103570000043b000804078000e80e8000000410069
:10358000014878001e0fe800900020009e0f1000f8
:10359000f4ff36000000eb00000f78000a0037004f
:1035a000350107000004e000fdff3a009e007800ae
:1035b0000e80e80000804000104078000000fb0012
:1035c000a01188001e0fe800300120009e0f10009f
:1035d000f3ff36000080fa00000006001200fa0037
:1035e000204f9800314f9800424f98000000eb00a8
:1035f000400798002e4890000080fb00c800dd00c6
:103600003e4890000080fb0000804000300798009a
:103610004e4890000080fb004800dd002007980025
:103620000000eb00100798000000eb00000f78008e
:10363000be00900000f02f00808060002e009000ff
:10364000808f500003003a000000eb0070079800e4
:103650001e003700100020004007980017003700b8
:103660002e0090000000d10020079800be009000be
:103670002e00900000806000100798004e489000d7
:103680008080fb004e009000680010000008dd0004
:10369000000f78001e0090009e0f500004003a00ba
:1036a0004e0090000000fb007007980007003700f4
:1036b0004e0090000000e800400798004e00900087
:1036c000e70f5000e6ff3400020037007e00900054
:1036d000000f98000e0890000080fa00000006001d
:1036e0000600fa0040479800514798000000eb00a0
:1036f000100798000000eb00000f78000000eb00be
:10370000000f78001e0037009e007800e02721009f
:1037100000804000104078000080fb004801dd0080
:103720009e00e800e0272100008040001040780063
:103730000080fb0000004100100798004e40900000
:103740008080fb001e0090000100dd001007980043
:103750009e00900000f02f00008060004800de0016
:10376000100798001e0178001e009000804078002d
:103770008028210000004100014878001e0fe80069
:103780005e4090000000fb000000e9009e0f50002a
:10379000ddff3c000080fa00000006000000fa0097
:1037a00021e2a90021a2a9002162a8001122200083
:1037b00091407800c0cfb30000c0600021e2b700a4
:1037c00020e2a80020c2a90020a2a9002082a9000e
:1037d0002062a900012220009140780090cfb30020
:1037e00000c0600020e2b7002002a90023c2a900a7
:1037f0002362a9002342a90022c2bf00f043b20005
:1038000022e2b70022a2a900700620004011880021
:103810008560a9008580a9009580a9009560a80011
:10382000910a200091407800f0c8b30000c0600009
:1038300001c4b30001407000a9e0b70021e2a80074
:103840002342a8000080fa00000006000200fa00ef
:10385000004f78001e00fb00f10f20000100600007
:10386000201188000080fa00000006000000fa0025
:10387000301180000000fb000080fa00000006000c
:103880000200fa0023c2bf00614060000004e000b3
:1038900003003a0010002000000f780002003700fb
:1038a0000000eb00000f78001e0078000080fa0096
:1038b000000006000000fa0022c2bf006140600064
:1038c0000080fb000080fa00000006000600fa00fd
:1038d00010079800414798000040eb0010479800ff
:1038e0000e003700f3ff07000004e000fdff320088
:1038f000deff0700004f78009e4078001e00900019
:10390000014878001e0090000000e80010079800b1
:103910001e4090000040e800104798001e409000b4
:103920008000fb004e4090000080fb00808f500024
:10393000ecff35000080fa00000006000400fa00e9
:10394000000f780000003700cdff07000004e00002
:10395000fdff3a001e00780010407800bbff070012
:103960001e00780010407800204798002e409000fc
:103970000004e0000200320010c0b30020479800ad
:103980002e4090001e0fe8000004e000eeff3a0019
:103990000080fa00000006000000fa0031e2a900f1
:1039a00031a2a9003162a8001123200091407800c3
:1039b000c0cfb30000c0600031e2b70030e2a80021
:1039c00030c2a90030a2a9003082a9003062a9004b
:1039d000012320009140780090cfb30000c0600028
:1039e00030e2b7003002a90033c2a9003362a90057
:1039f0003342a90032c2bf00f043b20032e2b70046
:103a000032a2a900c0122000c011880087c0a900fe
:103a100087e0a90097e0a90097c0a800310b20001b
:103a20009140780080cfb30000c060000024a00067
:103a3000b3e0b70031e2a8003342a8000080fa00ea
:103a4000000006000200fa00004f78001e00fb0094
:103a5000f10f200001006000a01188000080fa0032
:103a6000000006000000fa00b01180000000fb001a
:103a70000080fa00000006000200fa0033c2bf0016
:103a8000614060000004e00003003a0010002000e4
:103a9000000f7800020037000000eb00000f7800f4
:103aa0001e0078000080fa00000006000000fa0006
:103ab00032c2bf00614060000080fb000080fa005d
:103ac000000006000600fa00100798004147980021
:103ad0000040eb00104798000e003700f3ff07008e
:103ae0000004e000fdff3200deff0700004f780019
:103af0009e4078001e009000014878001e00900053
:103b00000000e800100798001e4090000040e80008
:103b1000104798001e4090008000fb004e4090002f
:103b20000080fb00808f5000ecff35000080fa0021
:103b3000000006000400fa00000f780000003700c3
:103b4000cdff07000004e000fdff3a001e007800f2
:103b500010407800bbff07001e007800104078007e
:103b6000204798002e4090000004e0000200320040
:103b700010c0b300204798002e4090001e0fe800b0
:103b80000004e000eeff3a000080fa0000000600aa
:103b90000200fa00f00007000040eb00004f780040
:103ba000040037009e407800f0c3b30043010700d3
:103bb0001e4fe80010c0b3009e4f1000f9ff360002
:103bc000340007008040eb000040eb0002000700db
:103bd0000080fa00000006000400fa002047980068
:103be000314798002e409000e0f1b7003e40900031
:103bf000e1f1b7000040eb00004f78000c00370007
:103c00003e40900081cbb300014070009e407800a0
:103c10002a0107009e40780000c4b3002701070076
:103c20009e40780000ccb300240107001e4fe8003e
:103c300013c0b3009ecf1100f1ff36002e4090005c
:103c40000080fb004600de0000417800be4090008e
:103c500080cbb30000c070008240780017010700dd
:103c60002e4090000080fb004600de0000417800fe
:103c70002e409000f3c3b3008340600000c4b30043
:103c800000c07000824078000c0107000080fa003c
:103c9000000006000200fa000040eb00004f780030
:103ca0000f0037009e4078000040eb00caff07007d
:103cb0000040eb0010479800050037000040eb0083
:103cc000380107001e4090000040e80010479800af
:103cd0001e4090000004e000f8ff3d001e4fe80089
:103ce00070c0b3009e4f1000eeff36000080fa0057
:103cf000000006000200fa000040eb00004f7800d0
:103d00000f0037009e4078000040eb00b2ff070034
:103d10000040eb00104798000500370000c0eb00a2
:103d2000200107001e4090000040e8001047980066
:103d30001e4090000004e000f8ff3d001e4fe80028
:103d400070c0b3009e4f1000eeff36000080fa00f6
:103d5000000006000600fa00404798000000eb0053
:103d6000100798000000eb00000f7800ce40900094
:103d700000ceb30000c04000404798000000eb00b8
:103d8000100798000e0037004e4090000000fb0026
:103d90006500b900800078001e009000008f400090
:103da0009e00780000002100008040001040780054
:103db000fc0007001e0090000000e80010079800bb
:103dc0001e009000e40f5000efff34000040eb00b5
:103dd000f40007000080fa00000006000200fa006c
:103de000000f7800040037001e00780010407800b3
:103df0001e0fe800d7ff07001e0078001040780073
:103e00000004e000f8ff3a000080fa00000006001d
:103e10000600fa0020479800314798004247980072
:103e20003e4090000080fb004300de0080407800b0
:103e30002e40900068ff0700b9000700004f78008f
:103e40003e4090000080fb004300de008040780090
:103e50002e40900060ff0700b1000700004f78007f
:103e60003e4090000080fb004300de008040780070
:103e70002e40900058ff07003e4090000080fb005d
:103e8000e7006000100020000100dd0080407800a5
:103e90001e40780000c07000004f78001e4078007f
:103ea000c00007000080fa00000006000800fa00c9
:103eb00010079800414798005247980063479800c0
:103ec000744798000040eb00004f78001600370060
:103ed0005e4090009e4040004e4090003eff070034
:103ee0000040eb00104798000a0037009e00900049
:103ef0001e0090000000e800100798000100780004
:103f0000c8000700a70007001e4090000040e8001e
:103f1000104798009e4090006e40900080cf500067
:103f2000f2ff39001e4fe8007e4090000080fb0049
:103f30004300de009e4f5000e5ff3e000080fa0087
:103f4000000006000000fa00a0002000e8010700c1
:103f50000080fa00000006000000fa0091168000c0
:103f600000f02f000080600090168800c442a90075
:103f7000c502a900c462a900cd82a800d522a9006b
:103f8000d502a9008116800000f02f00008060009b
:103f900080168800c042a900d122a900d102a90040
:103fa000c062a900c102a900c982a9000080fa006c
:103fb000000006000400fa00004f78001e80fb009d
:103fc000100798001e0090000000e000040032007e
:103fd0001e009000e10f5000040032000600370080
:103fe000d522a800d502a90005003700d522a900d6
:103ff000d502a80002003700d522a900d502a900e9
:104000000080fa00000006000400fa00004f78006b
:104010001e80fb00100798001e0090000000e000ca
:10402000040032001e009000e10f50000400320036
:1040300006003700d522a900d502a90005003700e7
:10404000d522a900d502a90002003700d522a90077
:10405000d502a9000080fa00000006000400fa0062
:104060002047980081168000f00f2000008070002b
:1040700080168800c462a800c502a9002e409000e6
:10408000ccff0700c442a800aeff0700c442a9004d
:10409000acff0700c442a800aaff070090168000ea
:1040a000004f7800c442a9002e409000d6ff0700c0
:1040b0000000eb000080fa00000006000200fa0099
:1040c000004f7800114798001e409000e3ff070062
:1040d0000004e000fcff35008116800000f02f0096
:1040e0000080600080168800c462a900c502a90093
:1040f000c442a8001e409000aeff07001e80fb00d7
:1041000090168800a000200079010700c442a90091
:104110001e409000bcff07000080fa00000006006f
:104120000200fa00e0d1bf000080fb004600de0084
:10413000caff07000004e000faff35008116800086
:10414000f00f20000080700080168800c462a80074
:10415000c502a800e0d1bf000080fb004600de00e1
:1041600094ff070077ff0700c442a80075ff07000f
:1041700090168000004f7800c442a900e0d1bf0033
:104180000080fb004600de009fff0700e0d1bf007b
:104190000040e800e0f1b7001e80fb000080fa005c
:1041a000000006000200fa00004f7800e0d1bf00d6
:1041b0000080fb004600de00a8ff07000004e000ce
:1041c000faff35008116800000f02f0000806000ab
:1041d00080168800c462a900c502a8001e00fb006a
:1041e00090168800e0d1bf000080fb004600de0092
:1041f00070ff0700c442a80052ff0700c442a90094
:10420000e0d1bf000080fb004600de007eff07001b
:10421000e0d1bf000040e800e0f1b7000080fa0004
:10422000000006000200fa00000f78001e0078006f
:10423000104078000080fb000080fa0000000600bb
:10424000801f78000200fa0030118000004f7800d3
:104250001e00fb00201188008560a9000080fa0084
:104260004f007800004006000000fa008580a90099
:104270000080fa0000400600801f78000200fa006b
:1042800000c3b300004f780032c2bf00644060003a
:104290000004e00003003200b0118000004f7800fd
:1042a00008003700b01180007af2b700100020003b
:1042b000a09388007ad2bf007ad2bf000000fb0032
:1042c0002011880087c0a9000080fa004f00780004
:1042d000004006000000fa0087e0a9000080fa0014
:1042e00000400600809fbe00821f78000000fa0098
:1042f000409380000000e800409388001093800005
:10430000e80f500004003e00109380000000e80019
:1043100010938800100037000000eb001093880015
:10432000cbc2bf000080fb004500de0061406000a2
:104330000004a20061406000614060004501dd00b2
:10434000b12c200091407800f0cdb30000c0600097
:1043500002407000cbe2b700809380000000e800cc
:104360008093880080938000e80f5000060036009c
:104370000000eb008093880010002000c0938800ac
:104380001000200090938800509380000000e0000f
:10439000030032000000eb00509388000300370058
:1043a000509380000000e8005093880050938000f4
:1043b0006f4060006f4160008132200091407800c2
:1043c00000cfb30000c060000240700028e3b700d7
:1043d0002023a8008460a9000080fa004f01780023
:1043e0004f00be00004006003600f800809fbe006f
:1043f000829fbe00849fbe00869fbe000000fa0020
:10440000100020003093880022fe07008400a900dd
:104410000080fa004f03be004f02be004f01be00f5
:104420004f00be003600f90000400600801f7800f3
:104430000000fa00cac2bf000044b2000004e0005d
:1044400004003a00209380000000e80020938800d8
:1044500003003700209380000000e90020938800cb
:1044600020938000e20f5000020034000000eb00b7
:1044700020938800209380000000e00002003d00af
:1044800020002000209388008680a9000080fa0088
:104490004f00780000400600809fbe00821f780019
:1044a0000000fa0050938000021880008000400055
:1044b000c0262100008040000208780085a0a900e5
:1044c0000080fa004f0178004f00be000040060057
:1044d0000000fa00c9a2a900c002a800c022a800da
:1044e000c8e2a800c882a800c8c2a800c9e2a90002
:1044f000c9c2a800c842a900c862a800c082a8001a
:10450000c922a900cd02a900c902a9000080fa00b1
:10451000000006000000fa001168200091407800b9
:1045200000ceb30000c060000024a00081e6b70008
:10453000416a20009140780000ceb30000c06000c6
:10454000e040b300a4e6b700f16c20009140780091
:1045500000ceb30000c060003040b300cfe6b7002b
:104560000080fa00000006000200fa00004f780008
:1045700010c0b3009e4f100009003a00c922a900e4
:10458000916c20009140780000ceb30000c0600024
:104590005040b300c9e6b700cd02a8000d003700b7
:1045a000c922a800916c20009140780000ceb30091
:1045b00000c06000c9e6b700616a20009140780041
:1045c00000ceb30000c060009040b300a6e6b70084
:1045d000cd02a9000080fa00000006000000fa00e9
:1045e00005e1a90005a1a90004c1a900411020000e
:1045f00091407800f0ccb30000c060000044a000ff
:1046000004e1b7000421a9000000eb0000088800c5
:1046100000e2240010088800510a20009140780030
:10462000f0c8b30000c060000044a000a5e0b700df
:104630008460a9009460a80005e1a8000080fa0049
:10464000000006000000fa0021e3a90021a3a90050
:104650001132200091407800c0cfb30000c060004c
:1046600021e3b700013220009140780000ceb30072
:1046700000c0700020e3b7002043a90023c3bf009f
:104680007f40600023e3b7002343a90021322000cc
:104690009140780030ccb30000c0600022e3b70046
:1046a0002223a9002203a90025e3a80025c3bf00f7
:1046b000f041b30025e3b70028e3a90081322000d0
:1046c0009140780000cfb30000c0600028e3b7003d
:1046d000c0ff2f006019880085a0a90095a0a80040
:1046e00021e3a8002023a8000080fa0000000600b3
:1046f0000400fa00100798000000eb00000f78009b
:104700000000eb00000f78000200370000000000fe
:104710001e0fe8001e0090009e0f1000fbff3900e6
:084720000080fa000000060011
:020000040000fa
:084728000040da000000fe0071
:00000001FF
