:020000040000fa
:080000000002040000000000f2
:020000040000fa
:10040000cfe620000e7f21000e01880000000000d2
:100410000c000700402a2000010020001100070006
:10042000000020000000e000020032000000020096
:10043000000000009e100200000000000040da00f2
:100440000000fe004440a900400120000000e00040
:100450000300320000002000a00188004440a800f2
:100460000000060091018800800078000000eb0089
:1004700015003700e280400032a0b4009101ba00bc
:10048000e280400032a0b4009102ba00e280400055
:1004900032a0b4000002eb00472bde00f507b200eb
:1004a000602ce10004003a000059eb008301e900f0
:1004b000fdff3e00040037006128e100010032002a
:1004c0000082eb00040007001101ba000200e00006
:1004d000e8ff3a00000006003159ba008301e90044
:1004e0000c0032002159ba008301e90008003200f3
:1004f0000400e00003003a00e280400032a0b400b3
:10050000f5ff370011d9ba008301e900faff3a007c
:100510008100e800e180400032a0b4000000060045
:020000040000fa
:0457f8009f290000e5
:020000040000fa
:0457fc007f3f0000eb
:020000040000fa
:100008005a1100005a1100005a1100005a1100003c
:100018005a1100005a1100005a1100005a1100002c
:10002800441000005a1100005a110000e00f0000af
:100038005a1100005a1100005a1100005a1100000c
:100048005a1100005a1100005a110000a80f0000b0
:10005800bc0f0000821000005a1100005a11000065
:100068005a1100005a1100005a1100005a110000dc
:100078004c1000005a1100005a1100005a110000db
:100088005a1100005a1100005a1100005a110000bc
:100098005a1100005a110000c40f0000d80f0000c8
:1000a8005a1100005a1100005a1100005a1100009c
:1000b8005a1100005a1100005a1100005a1100008c
:1000c8005a1100005a1100005a1100005a1100007c
:1000d8005a1100005a1100005a1100005a1100006c
:1000e8005a1100005a1100005a1100005a1100005c
:1000f8005a1100005a1100005a1100005a1100004c
:100108005a1100005a1100005a1100005a1100003b
:100118005a1100005a1100005a1100005a1100002b
:100128005a1100005a1100005a1100005a1100001b
:100138005a1100005a1100005a1100005a1100000b
:100148005a1100005a1100005a1100005a110000fb
:100158005a1100005a1100005a1100005a110000eb
:100168005a1100005a1100005a1100005a110000db
:100178005a1100005a1100005a1100005a110000cb
:100188005a1100005a1100005a1100005a110000bb
:100198005a1100005a1100005a1100005a110000ab
:1001a8005a1100005a1100005a1100005a1100009b
:1001b8005a1100005a1100005a1100005a1100008b
:1001c8005a1100005a1100005a1100005a1100007b
:1001d8005a1100005a1100005a1100005a1100006b
:1001e8005a1100005a1100005a1100005a1100005b
:0801f8005a1100005a11000029
:020000040000fa
:100208005a1100005a1100005a1100005a1100003a
:100218005a1100005a1100005a1100005a1100002a
:10022800441000005a1100005a110000e00f0000ad
:100238005a1100005a1100005a1100005a1100000a
:100248005a1100005a1100005a110000a80f0000ae
:10025800bc0f0000821000005a1100005a11000063
:100268005a1100005a1100005a1100005a110000da
:100278004c1000005a1100005a1100005a110000d9
:100288005a1100005a1100005a1100005a110000ba
:100298005a1100005a110000c40f0000d80f0000c6
:1002a8005a1100005a1100005a1100005a1100009a
:1002b8005a1100005a1100005a1100005a1100008a
:1002c8005a1100005a1100005a1100005a1100007a
:1002d8005a1100005a1100005a1100005a1100006a
:1002e8005a1100005a1100005a1100005a1100005a
:1002f8005a1100005a1100005a1100005a1100004a
:100308005a1100005a1100005a1100005a11000039
:100318005a1100005a1100005a1100005a11000029
:100328005a1100005a1100005a1100005a11000019
:100338005a1100005a1100005a1100005a11000009
:100348005a1100005a1100005a1100005a110000f9
:100358005a1100005a1100005a1100005a110000e9
:100368005a1100005a1100005a1100005a110000d9
:100378005a1100005a1100005a1100005a110000c9
:100388005a1100005a1100005a1100005a110000b9
:100398005a1100005a1100005a1100005a110000a9
:1003a8005a1100005a1100005a1100005a11000099
:1003b8005a1100005a1100005a1100005a11000089
:1003c8005a1100005a1100005a1100005a11000079
:1003d8005a1100005a1100005a1100005a11000069
:1003e8005a1100005a1100005a1100005a11000059
:0803f8005a1100005a11000027
:020000040000fa
:100520005465000073740000206400006520000022
:1005300053740000726900006e6700002e2e0000e8
:080540002e0000000100000084
:020000040000fa
:10054800620e00000a000000020000000000000027
:10055800000000000000000000000000e20d0000a4
:1005680080000000000000000008000000040000f7
:1005780002000000204041003f0100000000000090
:100588000000000000000000000000000000000063
:100598000000000000000000000000000000000053
:1005a80000808000808080008080800080808000c3
:1005b8008080800080808000808080008080800033
:1005c8008080c000e0f0f000f0f0e000e0e0e00043
:1005d800c0c0c000c0c080008080800080000000d3
:1005e8000000000000000000000000000000000003
:1005f80000000000000000000000000000000000f3
:100608000000000000c0f000f8fcfc00f8f0c0009a
:100618008000000000000000000000000000000052
:1006280000000000000000000000000000000000c2
:1006380000000000000000000000000000000000b2
:1006480000000000000000000000ff00ffffff00a6
:10065800ffffff00ffffff00ffffff00ffffff009e
:10066800ffffff00ffffff00ffffff00ffffff008e
:10067800ffffe700c3c3c300c3c3e700e7e7e70022
:10068800e7ffff00ffffff00ffffff00ffff7e0007
:100698007e7e7e007e3c1800000000000000000006
:1006a80000000000000000000080e000f8feff00ed
:1006b800ff3f0f0003030f003fffff00fef8e000bd
:1006c800c000000000000000000000000000000062
:1006d8000000000000000000f8f8f800000000002a
:1006e80000f8f8001818180018181800180000006a
:1006f80000f8f80018181900191919003931710093
:10070800e181010001010100818101000101010075
:10071800010181008101010003878f000f0f0f0085
:10072800070707000787830003030300038181008d
:10073800818180000000000000000000fcfc000037
:1007480000000000000000000000000000000000a1
:10075800001c3f003f3f3f003f3f3e003e3e3e0003
:100768003e3e3e003e3f3f003f3f3f003f1c0000f3
:100778000000000000000000000000000000000071
:100788000000ff00ffff000000000000ffff18004e
:10079800181818001818180000000000ffff0000c3
:1007a80000000000000000000000ff00ff1c000027
:1007b8000000ff00ff0000000000000000ffff0035
:1007c80000000000031ffc00e0000000c0f83f002c
:1007d8000700000080e3e100313131003133ff00d0
:1007e800fe0000000000ff00ff0000000000000005
:1007f80000000000000000000000000000000000f1
:1008080000000000000000000000000000000000e0
:1008180000000000000000000000000000000000d0
:100828000000000000000000060c0c000c0f070080
:100838000000000000000f000f0000000000000092
:100848000000000000000f000f0c0c000c0c0c0046
:100858000c06060007030000000000000003070064
:100868000e0c0c000c0607000f0f00000000000023
:10087800000007000f0e0f0001000000000001003b
:10088800070e0c000c0c0c00060f0f0000000000f7
:10089800000f0f0000000000000000000000000032
:1008a8000000000000ffff00ffffff001f1f1f00e8
:1008b8001f1f1f001f1f1f001f1f1f001f1f1f00bc
:1008c800ffffff00ffff0000000000000000000025
:1008d8000000000000000000000000000000000010
:1008e8000000f800f8f8f800f8f8f800f8f8f80050
:1008f800f8f8f800f8f8f800f8f8f800f8f8f80050
:10090800f8f8f800f8f8f800f8f8f800f8f8f8003f
:10091800f8f8f800f8f8f800f8f8f800f8f8f8002f
:1009280000000000000000000000000000000000bf
:1009380000000000000000000000000000000000af
:10094800000000000000000000000000000000009f
:10095800ffffff00ffff0000000000000000000094
:1009680000000000000000000000ff00ffffff0083
:10097800ff00000000000000000000000000000070
:1009880000000000000000000000000000ffff0061
:10099800ffffff00c0c0c000c0c0c000c0c0c00092
:1009a800c0c0c000c0c0c000c0c0c000c0c0c0003f
:1009b800c0c0c000c0c0c000c0c0c000c0c0c0002f
:1009c800c0c0c000ffffff00ffff000000000000e4
:1009d800000000000000000000000000000000000f
:1009e80000000000000000000000000000000000ff
:1009f80000000000000000000000ff00ffffff00f3
:100a0800fff0f000f0f0f000f0f0f000f0f0f0008f
:100a1800f0f0f000f0ffff00ffffff000000000013
:100a280000000000000000000000000000000000be
:100a38000000000000000000070707000707070084
:100a4800070707000707070007070700070707004a
:100a5800070707000707070007070700070707003a
:100a6800070707000707070007070700070707002a
:100a78000707070007000000000000000000000052
:100a8800000000000000000000000000000000005e
:100a9800000000000000000000000000000000004e
:100aa8000000000000010100010101000101010036
:100ab8000101010001010100010101000101010022
:100ac800010101000101000000000000000c00000d
:100ad800e201000002000000000000000000000029
:100ae800005f00000000070000070000147f1400ea
:100af8007f1424002a7f2a0012231300086462004e
:100b080036495500225000000503000000001c0073
:100b180022410000004122001c0008002a1c2a0073
:100b2800080808003e0808000050300000000800cf
:100b380008080800080030003000000020100800f5
:100b480004023e00514945003e0042007f4000003b
:100b5800426151004946210041454b0031181400bb
:100b6800127f10002745450045393c004a49490095
:100b7800300171000905030036494900493606006d
:100b8800494929001e00360036000000005636008c
:100b9800000000000814220041141400141414006a
:100ba80041221400080002000151090006324900e0
:100bb80079413e007e111100117e7f0049494900ac
:100bc800363e4100414122007f414100221c7f0006
:100bd80049494900417f0900090101003e4141009e
:100be80051327f00080808007f0041007f41000063
:100bf800204041003f017f0008142200417f40004f
:100c0800404040007f020400027f7f00040810007b
:100c18007f3e410041413e007f09090009063e0030
:100c2800415121005e7f09001929460046494900c3
:100c380049310100017f0100013f400040403f0071
:100c48001f204000201f7f00201820007f63140011
:100c58000814630003047800040361005149450047
:100c6800430000007f4141000204080010204100b9
:100c7800417f0000000402000102040040404000df
:100c88004040000001020400002054005454780041
:100c98007f48440044383800444444002038440025
:100ca80044487f0038545400541808007e09010055
:100cb8000208140054543c007f0804000478000023
:100cc800447d400000204000443d0000007f1000ab
:100cd80028440000417f4000007c0400180478008c
:100ce8007c0804000478380044444400387c14002c
:100cf8001414080008141400187c7c00080404006c
:100d08000848540054542000043f440040203c004c
:100d1800404020007c1c200040201c003c4030004b
:100d2800403c440028102800440c500050503c001f
:100d3800446454004c4400000836410000000000a0
:100d48007f0000000041360008000800082a1c0047
:100d580008081c002a080800000000000000000025
:020000040000fa
:100d68000600fa002047980031479800424798004b
:100d7800534798000040eb00004f780011003700ff
:100d8800202a2800104178003e4090009e404000f4
:100d98002e409000d1020700202a28001041780038
:100da8003e4090009e414000ae4090004e40900072
:100db80000c040000040e90083407800c7020700f7
:100dc8001e4fe8005e4090009e4f1000ecff390077
:100dd8000040eb00004f780011003700202a28005f
:100de800104178002e4090001e404000be40900008
:100df800ba020700202a280010417800be4090005f
:100e08005e40900000c040000040e900804078004b
:100e18002e4090001e404000b00207001e4fe80020
:100e28004e4090009e4f1000ecff39000080fa0001
:100e3800000006000e00fa00204f9800314f98007d
:100e4800424f98004e4890000080fb0040079800f1
:100e58000000eb00300798004e4890000080fb002f
:100e680000004000610010002007980010002000da
:100e7800100798000000eb00000f7800770037009b
:100e8800202a2800104178003e0090008040780019
:100e98003e48900000c04000804178004e0090001d
:100ea800804078002e48900000c0400083407800c1
:100eb8008a020700202a2800104178003e0090008e
:100ec800804078003e48900000c040008041780093
:100ed800ae4890004e00900000c05000834078005b
:100ee8007e020700202a280010417800be489000a2
:100ef8003e00900000c0500080417800ae4890004d
:100f08004e00900000c05000834078007302070034
:100f1800202a280010417800be4890003e0090002a
:100f280000c05000804178004e009000804078005a
:100f38002e48900000c040008340780067020700f8
:100f4800202a2800104178004e0090008040780048
:100f58003e48900000c04000804178003e0090006c
:100f6800804078002e48900000c040008340780000
:100f78005a020700202a2800104178004e009000ed
:100f8800804078003e48900000c0400080417800d2
:100f9800ae4890003e00900000c0500083407800aa
:100fa8004e020700202a280010417800be48900011
:100fb8004e00900000c0500080417800ae4890007c
:100fc8003e00900000c050008340780043020700b4
:100fd800202a280010417800be4890004e0090005a
:100fe80000c05000804178003e00900080407800aa
:100ff8002e48900000c04000834078003702070068
:101008003e0090000000e800300798001e009000a5
:101018001e0f40001e0090000080e8001007980096
:101028001e00780000004000800078002e0090002c
:10103800008040000000e000080034004e009000ee
:101048000000e900400798002e0090001e0f4000a5
:101058002e0090000080e80020079800ce00900045
:101068003e009000808f500085ff3d000080fa0010
:10107800000006001c00fa00200f9800310f9800ad
:10108800420f9800530f9800ce0890002e08900049
:101098000080500050079800de0890003e0890003d
:1010a8000080500040079800de0090005e0090002d
:1010b8000080400030079800ce0090004e0090005d
:1010c80000804000200798002e089000100f98001c
:1010d8003e089000000f980010002000700798004c
:1010e80010002000600798005e0090000000e000fb
:1010f80008003d000080eb00700798005e0090003b
:101108000000ea00500798003e0090000000ea0046
:10111800300798004e0090000000e00008003d00f5
:101128000080eb00600798004e0090000000ea0085
:10113800400798002e0090000000ea002007980061
:10114800202a2800104178003e089000804078004e
:101158002e089000e10107005e0090000000e0000a
:1011680003003a004e0090000000e000400032000a
:10117800ce0090005e009000808f500021003c005f
:101188000000eb00100798009e0890007e00900079
:1011980000804000100f98009e0090002e009000e4
:1011a80000804000100798009e0090005e009000ac
:1011b800808f5000080034008e0890006e00900068
:1011c80000804000000f98009e0090003e009000b4
:1011d8000080500010079800202a2800104178004d
:1011e8000e089000804078001e089000bb010700a0
:1011f8009e0890004e089000808f5000e2ff3a0051
:101208001b0037000000eb00000f78008e089000ec
:101218006e00900000804000000f98003e00900093
:101228001e0f40004e0090009e0f10000600340074
:101238009e0890007e00900000804000100f9800eb
:101248002e0090001e0f1000202a28001041780060
:101258000e089000804078001e0890009f0107004b
:101268008e0890005e089000808f5000e7ff3a00db
:101278000080fa00000006000000fa0021e2a90040
:1012880021a2a9002162a800112220009140780023
:10129800c0cfb30000c0600021e2b70020e2a80080
:1012a80020c2a90020a2a9002082a9002062a900ca
:1012b800012220009140780090cfb30000c0600068
:1012c80020e2b7002002a90023c2a9002362a900d6
:1012d8002342a90022c2bf00f043b20022e2b700b5
:1012e80022a2a90030032000401188008560a900cf
:1012f8008580a9009580a9009560a800910a200022
:1013080091407800f0c8b30000c0600001c4b30089
:1013180001407000a9e0b70021e2a8002342a8001c
:101328000080fa00000006000200fa00004f780072
:101338001e00fb00f10f2000010060002011880052
:101348000080fa00000006000000fa00301180005a
:101358000000fb000080fa00000006000200fa000e
:1013680023c2bf00614060000004e00003003a00af
:1013780010002000000f7800020037000000eb008a
:10138800000f78001e0078000080fa0000000600b8
:101398000000fa0022c2bf00614060000080fb002c
:1013a8000080fa00000006000600fa001007980006
:1013b800414798000040eb00104798000e003700a6
:1013c800f3ff07000004e000fdff3200deff070026
:1013d800004f78009e4078001e0090000148780079
:1013e8001e0090000000e800100798001e409000c2
:1013f8000040e800104798001e4090008000fb0065
:101408004e4090000080fb00808f5000ecff3500bc
:101418000080fa00000006000400fa00000f7800bf
:1014280000003700cdff07000004e000fdff3a0090
:101438001e00780010407800bbff07001e007800ef
:1014480010407800204798002e4090000004e000eb
:101458000200320010c0b300204798002e409000d0
:101468001e0fe8000004e000eeff3a000080fa00da
:10147800000006000000fa0031e2a90031a2a9002c
:101488003162a8001123200091407800c0cfb3003a
:1014980000c0600031e2b70030e2a80030c2a90005
:1014a80030a2a9003082a9003062a90001232000df
:1014b8009140780090cfb30000c0600030e2b700e0
:1014c8003002a90033c2a9003362a9003342a9003f
:1014d80032c2bf00f043b20032e2b70032a2a90024
:1014e80030032000c011880087c0a90087e0a90048
:1014f80097e0a90097c0a800310b20009140780020
:1015080080cfb30000c060000024a000b3e0b700a3
:1015180031e2a8003342a8000080fa00000006006b
:101528000200fa00004f78001e00fb00f10f2000b7
:1015380001006000a01188000080fa000000060089
:101548000000fa00b01180000000fb000080fa00e3
:10155800000006000200fa0033c2bf0061406000cc
:101568000004e00003003a0010002000000f78009b
:10157800020037000000eb00000f78001e00780022
:101588000080fa00000006000000fa0032c2bf0026
:10159800614060000080fb000080fa000000060047
:1015a8000600fa0010079800414798000040eb0039
:1015b800104798000e003700f3ff07000004e00012
:1015c800fdff3200deff0700004f78009e407800e4
:1015d8001e009000014878001e0090000000e800fe
:1015e800100798001e4090000040e800104798003f
:1015f8001e4090008000fb004e4090000080fb00e1
:10160800808f5000ecff35000080fa0000000600d3
:101618000400fa00000f780000003700cdff070033
:101628000004e000fdff3a001e007800104078003a
:10163800bbff07001e007800104078002047980084
:101648002e4090000004e0000200320010c0b300f9
:10165800204798002e4090001e0fe8000004e0008c
:10166800eeff3a000080fa00000006000200fa00cf
:10167800eb0007000040eb00004f78000400370043
:101688009e407800f0c3b300380107001e4fe80001
:1016980020c0b3009e4f1000f9ff36000080fa000a
:1016a800000006000400fa0020479800314798001f
:1016b8002e409000e0edb7003e409000e1edb7000d
:1016c8000040eb00004f78000c0037003e409000cf
:1016d80081cbb300014070009e40780023010700d1
:1016e8009e40780000c4b300200107009e407800a7
:1016f80000ccb3001d0107001e4fe80013c0b30063
:101708009ecf1100f1ff36002e4090000080fb00b4
:101718004600de0000417800be40900080cbb30058
:1017280000c0700082407800100107002e40900031
:101738000080fb004600de00004178002e4090004b
:10174800f3c3b3008340600000c4b30000c070005e
:1017580082407800050107000080fa0000000600ba
:101768000200fa000040eb00004f78000f0037003d
:101778009e4078000040eb00caff07000040eb00e5
:1017880010479800050037000040eb0031010700c2
:101798001e4090000040e800104798001e4090004e
:1017a8000004e000f8ff3d001e4fe80070c0b300e1
:1017b8009e4f1000eeff36000080fa000000060081
:1017c8000200fa000040eb00004f78000f003700dd
:1017d8009e4078000040eb00b2ff07000040eb009d
:1017e800104798000500370000c0eb0019010700fa
:1017f8001e4090000040e800104798001e409000ee
:101808000004e000f8ff3d001e4fe80070c0b30080
:101818009e4f1000eeff36000080fa000000060020
:101828000600fa00404798000000eb0010079800f7
:101838000000eb00000f7800ce40900000ceb3000f
:1018480000c04000404798000000eb0010079800d7
:101858000e0037004e4090000000fb006500b90004
:10186800800078001e009000008f40009e007800e5
:1018780000c020000080400010407800f5000700fc
:101888001e0090000000e800100798001e0090005d
:10189800e40f5000efff34000040eb00ed000700bc
:1018a8000080fa00000006000200fa00000f78002d
:1018b800040037001e007800104078001e0fe80072
:1018c800d7ff07001e007800104078000004e000f1
:1018d800f8ff3a000080fa00000006000600fa004f
:1018e8002047980031479800424798003e409000b2
:1018f8000080fb004300de00804078002e4090000e
:1019080068ff0700b2000700004f78003e409000d3
:101918000080fb004300de00804078002e409000ed
:1019280060ff0700aa000700004f78003e409000c3
:101938000080fb004300de00804078002e409000cd
:1019480058ff07003e4090000080fb00e700600061
:10195800100020000100dd00804078001e40780063
:1019680000c07000004f78001e407800b9000700e2
:101978000080fa00000006000800fa00100798002e
:101988004147980052479800634798007447980069
:101998000040eb00004f7800160037005e409000d2
:1019a8009e4040004e4090003eff07000040eb0084
:1019b800104798000a0037009e0090001e00900013
:1019c8000000e8001007980001007800c100070037
:1019d800a00007001e4090000040e8001047980053
:1019e8009e4090006e40900080cf5000f2ff39007a
:1019f8001e4fe8007e4090000080fb004300de00a0
:101a08009e4f5000e5ff3e000080fa0000000600ef
:101a18000000fa00000000000080fa000000060044
:101a28000000fa009116800000f02f00008060008e
:101a380090168800c442a900c502a900c462a90082
:101a4800cd82a900d522a900d502a900811680005f
:101a580000f02f000080600080168800c042a900b6
:101a6800d122a900d102a900c062a900c102a9001f
:101a7800c982a8000080fa00000006000400fa00ed
:101a8800004f78001e80fb00100798001e00900091
:101a98000000e000040032001e009000e10f50003a
:101aa8000400320005003700d522a800d502a9009d
:101ab80002003700d522a900d502a8000080fa004c
:101ac800000006000400fa00004f78001e80fb00aa
:101ad800100798001e0090000000e000040032008b
:101ae8001e009000e10f500004003200050037008e
:101af800d522a800d502a90002003700d522a900e6
:101b0800d502a8000080fa00000006000400fa00d0
:101b18002047980081168000f00f20000080700098
:101b280080168800c462a800c502a9002e40900053
:101b3800d2ff0700c442a800b5ff0700c442a900ad
:101b4800b3ff0700c442a800b1ff07009016800049
:101b5800004f7800c442a9002e409000d9ff07002a
:101b68001e80fb000080fa00000006000200fa0058
:101b7800004f7800114798001e409000e3ff0700cf
:101b88000004e000fcff35008116800000f02f0003
:101b98000080600080168800c462a900c502a90000
:101ba8001e409000b5ff07001e80fb0090168800bd
:101bb800c442a800a0002000d5000700c442a90024
:101bc8001e409000bfff07000080fa0000000600da
:101bd8000200fa00e0cdbf000080fb004600de00f6
:101be800caff07000004e000faff350081168000f4
:101bf800f00f20000080700080168800c462a800e2
:101c0800c502a800e0cdbf000080fb004600de0052
:101c18009aff07007eff0700c442a8007cff070068
:101c280090168000004f7800c442a900e0cdbf00a4
:101c38000080fb004600de00a2ff0700e0cdbf00e9
:101c48000040e800e0edb7001e80fb000080fa00cd
:101c5800000006000200fa00004f7800e0cdbf0047
:101c68000080fb004600de00a8ff07000004e0003b
:101c7800faff35008116800000f02f000080600018
:101c880080168800c462a900c502a8001e00fb00d7
:101c980090168800e0cdbf000080fb004600de0003
:101ca80076ff0700c442a80059ff0700c442a900f4
:101cb800e0cdbf000080fb004600de0081ff07008a
:101cc800e0cdbf000040e800e0edb7000080fa007a
:101cd800000006000200fa00000f78001e007800dd
:101ce800104078000080fb000080fa000000060029
:101cf8000000fa00c9a2a900c002a800c022a800da
:101d0800c8e2a800c882a800c8c2a800c9e2a90001
:101d1800c9c2a800c842a900c862a800c082a80019
:101d2800c922a900cd02a900c902a9000080fa00b1
:101d3800000006000000fa001168200091407800b9
:101d480000ceb30000c060000024a00081e6b70008
:101d5800416a20009140780000ceb30000c06000c6
:101d6800e040b300a4e6b700f16c20009140780091
:101d780000ceb30000c060003040b300cfe6b7002b
:101d88000080fa00000006000200fa00004f780008
:101d980010c0b3009e4f100009003a00c922a900e4
:101da800916c20009140780000ceb30000c0600024
:101db8005040b300c9e6b700cd02a8000d003700b7
:101dc800c922a800916c20009140780000ceb30091
:101dd80000c06000c9e6b700616a20009140780041
:101de80000ceb30000c060009040b300a6e6b70084
:101df800cd02a9000080fa00000006000000fa00e9
:101e080005e1a90005a1a90004c1a900411020000d
:101e180091407800f0ccb30000c060000044a000fe
:101e280004e1b7000421a9000000eb0000088800c5
:101e380000e2240010088800510a20009140780030
:101e4800f0c8b30000c060000044a000a5e0b700df
:101e58008460a9009460a80005e1a8000080fa0049
:101e6800000006000000fa0021e3a90021a3a90050
:101e78001132200091407800c0cfb30000c060004c
:101e880021e3b700013220009140780000ceb30072
:101e980000c0700020e3b7002043a90023c3bf009f
:101ea8007f40600023e3b7002343a90021322000cc
:101eb8009140780030ccb30000c0600022e3b70046
:101ec8002223a9002203a90025e3a80025c3bf00f7
:101ed800f041b30025e3b70028e3a90081322000d0
:101ee8009140780000cfb30000c0600028e3b7003d
:101ef800c0ff2f006019880085a0a90095a0a80040
:101f080021e3a8002023a8000080fa0000000600b2
:101f18000400fa00100798000000eb00000f78009a
:101f28000000eb00000f78000200370000000000fe
:101f38001e0fe8001e0090009e0f1000fbff3900e6
:101f48000080fa0000000600801f78000200fa00f6
:101f580030118000004f78001e00fb00201188001f
:101f68008560a9000080fa004f0078000040060054
:101f78000000fa008580a9000080fa0000400600f1
:101f8800801f78000200fa00b0118000004f78002e
:101f98001e00fb00a011880087c0a9000080fa007d
:101fa8004f007800004006000000fa0087e0a90012
:101fb8000080fa0000400600809fbe00821f780063
:101fc8000000fa0010738000e80f500004003e0083
:101fd800107380000000e8001073880010003700bc
:101fe8000000eb0010738800cbc2bf000080fb002c
:101ff8004500de00614060000004a200614060000e
:10200800614060004501dd00b12c2000914078005e
:10201800f0cdb30000c0600002407000cbe2b70012
:10202800307380000000e000030032000000eb0085
:102038003073880003003700307380000000e80028
:1020480030738800307380006f4060006f4160001b
:10205800813220009140780000cfb30000c06000ba
:102068000240700028e3b7002023a8008460a9007c
:102078000080fa004f0178004f00be0000400600c3
:102088000000fa008400a9000080fa000040060061
:10209800801f78000000fa00cac2bf000044b200e6
:1020a8000004e00004003a00207380000000e8000b
:1020b8002073880003003700207380000000e900c7
:1020c8002073880020738000e50f50000200340060
:1020d8000000eb0020738800207380000000e000ff
:1020e80002003d0050002000207388008680a9006f
:1020f8000080fa004f00780000400600809fbe0074
:10210800821f78000000fa003073800002188000f7
:102118008000400080e6200000804000020878002f
:1021280085a0a9000080fa004f0178004f00be008a
:10213800004006001600fa000000eb00000f7800cf
:102148000e80e800012928001100090031587800a4
:102158002001b10029000700450007002073800016
:102168009e0f10002200320020738000200f98007c
:10217800ae0890000100e000040032002e08900034
:10218800e10f50000c0032001200370074fd070008
:102198008040eb000040eb0042fd07000e80e800a5
:1021a800c1fd070012c0b30041c1b300a0c0b30015
:1021b800cafd07000e00370004c4b30003c8b3000b
:1021c8000041eb008040eb0000802000eafd0700a2
:1021d8000700370062fd07008040eb000040eb007d
:1021e80030fd0700207380000043b0008cfd07001d
:1021f80021738000010f7800d8ff37000000fa0033
:102208003174200091407800f0c8b30000c060002d
:102218000044a00043e7b7003174200091407800e3
:1022280080cfb30000c060000004a00043e7b700ff
:102238005174200091407800f0c8b30000c06000dd
:1022480045e7b700517420009140780080cfb30073
:1022580000c0600045e7b70042c7bf000042b200b7
:102268000004e000fcff32000080fa0000000600d5
:102278000000fa009efe0700aefe0700fefb070006
:102288007cfc0700ddfe0700f6fe07008400a900bd
:102298008680a9009400a8009680a800f3fc070097
:0c22a8002ffd07000080fa000000060077
:020000040000fa
:0822b4000040da000000fe000a
:00000001FF
